{
  "_format": "hh-sol-artifact-1",
  "contractName": "Claim",
  "sourceName": "contracts/Claim.sol",
  "abi": [
    {
      "inputs": [
        {
          "internalType": "address",
          "name": "_mojoToken",
          "type": "address"
        }
      ],
      "stateMutability": "nonpayable",
      "type": "constructor"
    },
    {
      "inputs": [
        {
          "internalType": "address",
          "name": "owner",
          "type": "address"
        }
      ],
      "name": "OwnableInvalidOwner",
      "type": "error"
    },
    {
      "inputs": [
        {
          "internalType": "address",
          "name": "account",
          "type": "address"
        }
      ],
      "name": "OwnableUnauthorizedAccount",
      "type": "error"
    },
    {
      "anonymous": false,
      "inputs": [
        {
          "indexed": true,
          "internalType": "address",
          "name": "previousOwner",
          "type": "address"
        },
        {
          "indexed": true,
          "internalType": "address",
          "name": "newOwner",
          "type": "address"
        }
      ],
      "name": "OwnershipTransferred",
      "type": "event"
    },
    {
      "anonymous": false,
      "inputs": [
        {
          "indexed": false,
          "internalType": "uint256",
          "name": "newRewardAmount",
          "type": "uint256"
        }
      ],
      "name": "RewardAmountUpdated",
      "type": "event"
    },
    {
      "anonymous": false,
      "inputs": [
        {
          "indexed": false,
          "internalType": "uint256",
          "name": "amount",
          "type": "uint256"
        }
      ],
      "name": "TokensLoaded",
      "type": "event"
    },
    {
      "anonymous": false,
      "inputs": [
        {
          "indexed": false,
          "internalType": "uint256",
          "name": "amount",
          "type": "uint256"
        }
      ],
      "name": "TokensWithdrawn",
      "type": "event"
    },
    {
      "anonymous": false,
      "inputs": [
        {
          "indexed": true,
          "internalType": "address",
          "name": "user",
          "type": "address"
        },
        {
          "indexed": false,
          "internalType": "string",
          "name": "username",
          "type": "string"
        }
      ],
      "name": "UsernameClaimed",
      "type": "event"
    },
    {
      "inputs": [
        {
          "internalType": "string",
          "name": "_username",
          "type": "string"
        }
      ],
      "name": "claimUsername",
      "outputs": [],
      "stateMutability": "nonpayable",
      "type": "function"
    },
    {
      "inputs": [],
      "name": "contractTokenBalance",
      "outputs": [
        {
          "internalType": "uint256",
          "name": "",
          "type": "uint256"
        }
      ],
      "stateMutability": "view",
      "type": "function"
    },
    {
      "inputs": [],
      "name": "getTotalUsernamesClaimed",
      "outputs": [
        {
          "internalType": "uint256",
          "name": "",
          "type": "uint256"
        }
      ],
      "stateMutability": "view",
      "type": "function"
    },
    {
      "inputs": [
        {
          "internalType": "address",
          "name": "user",
          "type": "address"
        }
      ],
      "name": "getUsername",
      "outputs": [
        {
          "internalType": "string",
          "name": "",
          "type": "string"
        }
      ],
      "stateMutability": "view",
      "type": "function"
    },
    {
      "inputs": [
        {
          "internalType": "string",
          "name": "_username",
          "type": "string"
        }
      ],
      "name": "isUsernameAvailable",
      "outputs": [
        {
          "internalType": "bool",
          "name": "",
          "type": "bool"
        }
      ],
      "stateMutability": "view",
      "type": "function"
    },
    {
      "inputs": [
        {
          "internalType": "uint256",
          "name": "amount",
          "type": "uint256"
        }
      ],
      "name": "loadTokens",
      "outputs": [],
      "stateMutability": "nonpayable",
      "type": "function"
    },
    {
      "inputs": [],
      "name": "mojoToken",
      "outputs": [
        {
          "internalType": "contract MOJO",
          "name": "",
          "type": "address"
        }
      ],
      "stateMutability": "view",
      "type": "function"
    },
    {
      "inputs": [],
      "name": "owner",
      "outputs": [
        {
          "internalType": "address",
          "name": "",
          "type": "address"
        }
      ],
      "stateMutability": "view",
      "type": "function"
    },
    {
      "inputs": [],
      "name": "renounceOwnership",
      "outputs": [],
      "stateMutability": "nonpayable",
      "type": "function"
    },
    {
      "inputs": [],
      "name": "rewardAmount",
      "outputs": [
        {
          "internalType": "uint256",
          "name": "",
          "type": "uint256"
        }
      ],
      "stateMutability": "view",
      "type": "function"
    },
    {
      "inputs": [
        {
          "internalType": "uint256",
          "name": "newRewardAmount",
          "type": "uint256"
        }
      ],
      "name": "setRewardAmount",
      "outputs": [],
      "stateMutability": "nonpayable",
      "type": "function"
    },
    {
      "inputs": [],
      "name": "totalUsernamesClaimed",
      "outputs": [
        {
          "internalType": "uint256",
          "name": "",
          "type": "uint256"
        }
      ],
      "stateMutability": "view",
      "type": "function"
    },
    {
      "inputs": [
        {
          "internalType": "address",
          "name": "newOwner",
          "type": "address"
        }
      ],
      "name": "transferOwnership",
      "outputs": [],
      "stateMutability": "nonpayable",
      "type": "function"
    },
    {
      "inputs": [
        {
          "internalType": "string",
          "name": "",
          "type": "string"
        }
      ],
      "name": "usernameToAddress",
      "outputs": [
        {
          "internalType": "address",
          "name": "",
          "type": "address"
        }
      ],
      "stateMutability": "view",
      "type": "function"
    },
    {
      "inputs": [
        {
          "internalType": "address",
          "name": "",
          "type": "address"
        }
      ],
      "name": "usernames",
      "outputs": [
        {
          "internalType": "string",
          "name": "",
          "type": "string"
        }
      ],
      "stateMutability": "view",
      "type": "function"
    },
    {
      "inputs": [
        {
          "internalType": "uint256",
          "name": "amount",
          "type": "uint256"
        }
      ],
      "name": "withdrawTokens",
      "outputs": [],
      "stateMutability": "nonpayable",
      "type": "function"
    }
  ],
  "bytecode": "0x608060405268056bc75e2d6310000060025560006005553480156200002357600080fd5b5060405162001cac38038062001cac833981810160405281019062000049919062000247565b33600073ffffffffffffffffffffffffffffffffffffffff168173ffffffffffffffffffffffffffffffffffffffff1603620000bf5760006040517f1e4fbdf7000000000000000000000000000000000000000000000000000000008152600401620000b691906200028a565b60405180910390fd5b620000d0816200011960201b60201c565b5080600160006101000a81548173ffffffffffffffffffffffffffffffffffffffff021916908373ffffffffffffffffffffffffffffffffffffffff16021790555050620002a7565b60008060009054906101000a900473ffffffffffffffffffffffffffffffffffffffff169050816000806101000a81548173ffffffffffffffffffffffffffffffffffffffff021916908373ffffffffffffffffffffffffffffffffffffffff1602179055508173ffffffffffffffffffffffffffffffffffffffff168173ffffffffffffffffffffffffffffffffffffffff167f8be0079c531659141344cd1fd0a4f28419497f9722a3daafe3b4186f6b6457e060405160405180910390a35050565b600080fd5b600073ffffffffffffffffffffffffffffffffffffffff82169050919050565b60006200020f82620001e2565b9050919050565b620002218162000202565b81146200022d57600080fd5b50565b600081519050620002418162000216565b92915050565b60006020828403121562000260576200025f620001dd565b5b6000620002708482850162000230565b91505092915050565b620002848162000202565b82525050565b6000602082019050620002a1600083018462000279565b92915050565b6119f580620002b76000396000f3fe608060405234801561001057600080fd5b50600436106101005760003560e01c8063a8a65a7811610097578063f2fde38b11610066578063f2fde38b14610275578063f69c6dec14610291578063f7b2a7be146102c1578063f825f143146102df57610100565b8063a8a65a78146101db578063ce43c032146101f7578063d56fb4a914610227578063ee91877c1461024557610100565b8063715018a6116100d3578063715018a6146101795780638da5cb5b146101835780639e9aed62146101a15780639f685879146101bf57610100565b80632ee365a314610105578063315a095d1461012157806336c52df41461013d5780634b9a99ef1461015b575b600080fd5b61011f600480360381019061011a9190610f3e565b61030f565b005b61013b60048036038101906101369190610f3e565b6103f4565b005b6101456105b5565b6040516101529190610f7a565b60405180910390f35b6101636105bb565b6040516101709190610f7a565b60405180910390f35b6101816105c5565b005b61018b6105d9565b6040516101989190610fd6565b60405180910390f35b6101a9610602565b6040516101b69190610f7a565b60405180910390f35b6101d960048036038101906101d49190611137565b6106a5565b005b6101f560048036038101906101f09190610f3e565b610a76565b005b610211600480360381019061020c91906111ac565b610abf565b60405161021e9190611258565b60405180910390f35b61022f610b90565b60405161023c91906112d9565b60405180910390f35b61025f600480360381019061025a91906111ac565b610bb6565b60405161026c9190611258565b60405180910390f35b61028f600480360381019061028a91906111ac565b610c56565b005b6102ab60048036038101906102a69190611137565b610cdc565b6040516102b8919061130f565b60405180910390f35b6102c9610d52565b6040516102d69190610f7a565b60405180910390f35b6102f960048036038101906102f49190611137565b610d58565b6040516103069190610fd6565b60405180910390f35b610317610da1565b600160009054906101000a900473ffffffffffffffffffffffffffffffffffffffff1673ffffffffffffffffffffffffffffffffffffffff166323b872dd3330846040518463ffffffff1660e01b81526004016103769392919061132a565b6020604051808303816000875af1158015610395573d6000803e3d6000fd5b505050506040513d601f19601f820116820180604052508101906103b9919061138d565b507fe7ca7140973d3f622f0e6e938ae83501eec28b53c6b87e97dd0f43a6e5cfaac3816040516103e99190610f7a565b60405180910390a150565b6103fc610da1565b80600160009054906101000a900473ffffffffffffffffffffffffffffffffffffffff1673ffffffffffffffffffffffffffffffffffffffff166370a08231306040518263ffffffff1660e01b81526004016104589190610fd6565b602060405180830381865afa158015610475573d6000803e3d6000fd5b505050506040513d601f19601f8201168201806040525081019061049991906113cf565b10156104da576040517f08c379a00000000000000000000000000000000000000000000000000000000081526004016104d19061146e565b60405180910390fd5b600160009054906101000a900473ffffffffffffffffffffffffffffffffffffffff1673ffffffffffffffffffffffffffffffffffffffff1663a9059cbb33836040518363ffffffff1660e01b815260040161053792919061148e565b6020604051808303816000875af1158015610556573d6000803e3d6000fd5b505050506040513d601f19601f8201168201806040525081019061057a919061138d565b507f9c6393f251205f9e03559951cab4c9ae71767b6174f77944a5b0c2fa51fbda9f816040516105aa9190610f7a565b60405180910390a150565b60055481565b6000600554905090565b6105cd610da1565b6105d76000610e28565b565b60008060009054906101000a900473ffffffffffffffffffffffffffffffffffffffff16905090565b6000600160009054906101000a900473ffffffffffffffffffffffffffffffffffffffff1673ffffffffffffffffffffffffffffffffffffffff166370a08231306040518263ffffffff1660e01b815260040161065f9190610fd6565b602060405180830381865afa15801561067c573d6000803e3d6000fd5b505050506040513d601f19601f820116820180604052508101906106a091906113cf565b905090565b6000600360003373ffffffffffffffffffffffffffffffffffffffff1673ffffffffffffffffffffffffffffffffffffffff16815260200190815260200160002080546106f1906114e6565b905014610733576040517f08c379a000000000000000000000000000000000000000000000000000000000815260040161072a90611563565b60405180910390fd5b600073ffffffffffffffffffffffffffffffffffffffff1660048260405161075b91906115bf565b908152602001604051809103902060009054906101000a900473ffffffffffffffffffffffffffffffffffffffff1673ffffffffffffffffffffffffffffffffffffffff16146107e0576040517f08c379a00000000000000000000000000000000000000000000000000000000081526004016107d790611622565b60405180910390fd5b80600360003373ffffffffffffffffffffffffffffffffffffffff1673ffffffffffffffffffffffffffffffffffffffff168152602001908152602001600020908161082c91906117e4565b503360048260405161083e91906115bf565b908152602001604051809103902060006101000a81548173ffffffffffffffffffffffffffffffffffffffff021916908373ffffffffffffffffffffffffffffffffffffffff160217905550600254600160009054906101000a900473ffffffffffffffffffffffffffffffffffffffff1673ffffffffffffffffffffffffffffffffffffffff166370a08231306040518263ffffffff1660e01b81526004016108e89190610fd6565b602060405180830381865afa158015610905573d6000803e3d6000fd5b505050506040513d601f19601f8201168201806040525081019061092991906113cf565b101561096a576040517f08c379a000000000000000000000000000000000000000000000000000000000815260040161096190611928565b60405180910390fd5b600160009054906101000a900473ffffffffffffffffffffffffffffffffffffffff1673ffffffffffffffffffffffffffffffffffffffff1663a9059cbb336002546040518363ffffffff1660e01b81526004016109c992919061148e565b6020604051808303816000875af11580156109e8573d6000803e3d6000fd5b505050506040513d601f19601f82011682018060405250810190610a0c919061138d565b5060056000815480929190610a2090611977565b91905055503373ffffffffffffffffffffffffffffffffffffffff167f359927565e450f7ac68679baa4602655c67dabbac8c0694477adb4f4ffffc0f382604051610a6b9190611258565b60405180910390a250565b610a7e610da1565b806002819055507f9639dea65e74b72b1b86ccf3e4f9b6d23b88d2aad2f103d0b3afe394e67edade81604051610ab49190610f7a565b60405180910390a150565b6060600360008373ffffffffffffffffffffffffffffffffffffffff1673ffffffffffffffffffffffffffffffffffffffff1681526020019081526020016000208054610b0b906114e6565b80601f0160208091040260200160405190810160405280929190818152602001828054610b37906114e6565b8015610b845780601f10610b5957610100808354040283529160200191610b84565b820191906000526020600020905b815481529060010190602001808311610b6757829003601f168201915b50505050509050919050565b600160009054906101000a900473ffffffffffffffffffffffffffffffffffffffff1681565b60036020528060005260406000206000915090508054610bd5906114e6565b80601f0160208091040260200160405190810160405280929190818152602001828054610c01906114e6565b8015610c4e5780601f10610c2357610100808354040283529160200191610c4e565b820191906000526020600020905b815481529060010190602001808311610c3157829003601f168201915b505050505081565b610c5e610da1565b600073ffffffffffffffffffffffffffffffffffffffff168173ffffffffffffffffffffffffffffffffffffffff1603610cd05760006040517f1e4fbdf7000000000000000000000000000000000000000000000000000000008152600401610cc79190610fd6565b60405180910390fd5b610cd981610e28565b50565b60008073ffffffffffffffffffffffffffffffffffffffff16600483604051610d0591906115bf565b908152602001604051809103902060009054906101000a900473ffffffffffffffffffffffffffffffffffffffff1673ffffffffffffffffffffffffffffffffffffffff16149050919050565b60025481565b6004818051602081018201805184825260208301602085012081835280955050505050506000915054906101000a900473ffffffffffffffffffffffffffffffffffffffff1681565b610da9610eec565b73ffffffffffffffffffffffffffffffffffffffff16610dc76105d9565b73ffffffffffffffffffffffffffffffffffffffff1614610e2657610dea610eec565b6040517f118cdaa7000000000000000000000000000000000000000000000000000000008152600401610e1d9190610fd6565b60405180910390fd5b565b60008060009054906101000a900473ffffffffffffffffffffffffffffffffffffffff169050816000806101000a81548173ffffffffffffffffffffffffffffffffffffffff021916908373ffffffffffffffffffffffffffffffffffffffff1602179055508173ffffffffffffffffffffffffffffffffffffffff168173ffffffffffffffffffffffffffffffffffffffff167f8be0079c531659141344cd1fd0a4f28419497f9722a3daafe3b4186f6b6457e060405160405180910390a35050565b600033905090565b6000604051905090565b600080fd5b600080fd5b6000819050919050565b610f1b81610f08565b8114610f2657600080fd5b50565b600081359050610f3881610f12565b92915050565b600060208284031215610f5457610f53610efe565b5b6000610f6284828501610f29565b91505092915050565b610f7481610f08565b82525050565b6000602082019050610f8f6000830184610f6b565b92915050565b600073ffffffffffffffffffffffffffffffffffffffff82169050919050565b6000610fc082610f95565b9050919050565b610fd081610fb5565b82525050565b6000602082019050610feb6000830184610fc7565b92915050565b600080fd5b600080fd5b6000601f19601f8301169050919050565b7f4e487b7100000000000000000000000000000000000000000000000000000000600052604160045260246000fd5b61104482610ffb565b810181811067ffffffffffffffff821117156110635761106261100c565b5b80604052505050565b6000611076610ef4565b9050611082828261103b565b919050565b600067ffffffffffffffff8211156110a2576110a161100c565b5b6110ab82610ffb565b9050602081019050919050565b82818337600083830152505050565b60006110da6110d584611087565b61106c565b9050828152602081018484840111156110f6576110f5610ff6565b5b6111018482856110b8565b509392505050565b600082601f83011261111e5761111d610ff1565b5b813561112e8482602086016110c7565b91505092915050565b60006020828403121561114d5761114c610efe565b5b600082013567ffffffffffffffff81111561116b5761116a610f03565b5b61117784828501611109565b91505092915050565b61118981610fb5565b811461119457600080fd5b50565b6000813590506111a681611180565b92915050565b6000602082840312156111c2576111c1610efe565b5b60006111d084828501611197565b91505092915050565b600081519050919050565b600082825260208201905092915050565b60005b838110156112135780820151818401526020810190506111f8565b60008484015250505050565b600061122a826111d9565b61123481856111e4565b93506112448185602086016111f5565b61124d81610ffb565b840191505092915050565b60006020820190508181036000830152611272818461121f565b905092915050565b6000819050919050565b600061129f61129a61129584610f95565b61127a565b610f95565b9050919050565b60006112b182611284565b9050919050565b60006112c3826112a6565b9050919050565b6112d3816112b8565b82525050565b60006020820190506112ee60008301846112ca565b92915050565b60008115159050919050565b611309816112f4565b82525050565b60006020820190506113246000830184611300565b92915050565b600060608201905061133f6000830186610fc7565b61134c6020830185610fc7565b6113596040830184610f6b565b949350505050565b61136a816112f4565b811461137557600080fd5b50565b60008151905061138781611361565b92915050565b6000602082840312156113a3576113a2610efe565b5b60006113b184828501611378565b91505092915050565b6000815190506113c981610f12565b92915050565b6000602082840312156113e5576113e4610efe565b5b60006113f3848285016113ba565b91505092915050565b7f4e6f7420656e6f75676820746f6b656e7320696e2074686520636f6e7472616360008201527f7400000000000000000000000000000000000000000000000000000000000000602082015250565b60006114586021836111e4565b9150611463826113fc565b604082019050919050565b600060208201905081810360008301526114878161144b565b9050919050565b60006040820190506114a36000830185610fc7565b6114b06020830184610f6b565b9392505050565b7f4e487b7100000000000000000000000000000000000000000000000000000000600052602260045260246000fd5b600060028204905060018216806114fe57607f821691505b602082108103611511576115106114b7565b5b50919050565b7f5573657220616c726561647920636c61696d6564206120757365726e616d6500600082015250565b600061154d601f836111e4565b915061155882611517565b602082019050919050565b6000602082019050818103600083015261157c81611540565b9050919050565b600081905092915050565b6000611599826111d9565b6115a38185611583565b93506115b38185602086016111f5565b80840191505092915050565b60006115cb828461158e565b915081905092915050565b7f557365726e616d6520616c72656164792074616b656e00000000000000000000600082015250565b600061160c6016836111e4565b9150611617826115d6565b602082019050919050565b6000602082019050818103600083015261163b816115ff565b9050919050565b60008190508160005260206000209050919050565b60006020601f8301049050919050565b600082821b905092915050565b6000600883026116a47fffffffffffffffffffffffffffffffffffffffffffffffffffffffffffffffff82611667565b6116ae8683611667565b95508019841693508086168417925050509392505050565b60006116e16116dc6116d784610f08565b61127a565b610f08565b9050919050565b6000819050919050565b6116fb836116c6565b61170f611707826116e8565b848454611674565b825550505050565b600090565b611724611717565b61172f8184846116f2565b505050565b5b818110156117535761174860008261171c565b600181019050611735565b5050565b601f8211156117985761176981611642565b61177284611657565b81016020851015611781578190505b61179561178d85611657565b830182611734565b50505b505050565b600082821c905092915050565b60006117bb6000198460080261179d565b1980831691505092915050565b60006117d483836117aa565b9150826002028217905092915050565b6117ed826111d9565b67ffffffffffffffff8111156118065761180561100c565b5b61181082546114e6565b61181b828285611757565b600060209050601f83116001811461184e576000841561183c578287015190505b61184685826117c8565b8655506118ae565b601f19841661185c86611642565b60005b828110156118845784890151825560018201915060208501945060208101905061185f565b868310156118a1578489015161189d601f8916826117aa565b8355505b6001600288020188555050505b505050505050565b7f436f6e747261637420646f6573206e6f74206861766520656e6f75676820746f60008201527f6b656e7300000000000000000000000000000000000000000000000000000000602082015250565b60006119126024836111e4565b915061191d826118b6565b604082019050919050565b6000602082019050818103600083015261194181611905565b9050919050565b7f4e487b7100000000000000000000000000000000000000000000000000000000600052601160045260246000fd5b600061198282610f08565b91507fffffffffffffffffffffffffffffffffffffffffffffffffffffffffffffffff82036119b4576119b3611948565b5b60018201905091905056fea2646970667358221220b291cfc38a4f444481ac6eb1194593c9e2aa494a98feb2fe53fb8efe1de386b764736f6c63430008180033",
  "linkReferences": {},
  "deployedLinkReferences": {}
}