{
  "_format": "hh-sol-artifact-1",
  "contractName": "MOJO",
  "sourceName": "contracts/MOJO.sol",
  "abi": [
    {
      "inputs": [],
      "stateMutability": "nonpayable",
      "type": "constructor"
    },
    {
      "inputs": [],
      "name": "CheckpointUnorderedInsertion",
      "type": "error"
    },
    {
      "inputs": [],
      "name": "ECDSAInvalidSignature",
      "type": "error"
    },
    {
      "inputs": [
        {
          "internalType": "uint256",
          "name": "length",
          "type": "uint256"
        }
      ],
      "name": "ECDSAInvalidSignatureLength",
      "type": "error"
    },
    {
      "inputs": [
        {
          "internalType": "bytes32",
          "name": "s",
          "type": "bytes32"
        }
      ],
      "name": "ECDSAInvalidSignatureS",
      "type": "error"
    },
    {
      "inputs": [
        {
          "internalType": "uint256",
          "name": "increasedSupply",
          "type": "uint256"
        },
        {
          "internalType": "uint256",
          "name": "cap",
          "type": "uint256"
        }
      ],
      "name": "ERC20ExceededSafeSupply",
      "type": "error"
    },
    {
      "inputs": [
        {
          "internalType": "address",
          "name": "spender",
          "type": "address"
        },
        {
          "internalType": "uint256",
          "name": "allowance",
          "type": "uint256"
        },
        {
          "internalType": "uint256",
          "name": "needed",
          "type": "uint256"
        }
      ],
      "name": "ERC20InsufficientAllowance",
      "type": "error"
    },
    {
      "inputs": [
        {
          "internalType": "address",
          "name": "sender",
          "type": "address"
        },
        {
          "internalType": "uint256",
          "name": "balance",
          "type": "uint256"
        },
        {
          "internalType": "uint256",
          "name": "needed",
          "type": "uint256"
        }
      ],
      "name": "ERC20InsufficientBalance",
      "type": "error"
    },
    {
      "inputs": [
        {
          "internalType": "address",
          "name": "approver",
          "type": "address"
        }
      ],
      "name": "ERC20InvalidApprover",
      "type": "error"
    },
    {
      "inputs": [
        {
          "internalType": "address",
          "name": "receiver",
          "type": "address"
        }
      ],
      "name": "ERC20InvalidReceiver",
      "type": "error"
    },
    {
      "inputs": [
        {
          "internalType": "address",
          "name": "sender",
          "type": "address"
        }
      ],
      "name": "ERC20InvalidSender",
      "type": "error"
    },
    {
      "inputs": [
        {
          "internalType": "address",
          "name": "spender",
          "type": "address"
        }
      ],
      "name": "ERC20InvalidSpender",
      "type": "error"
    },
    {
      "inputs": [
        {
          "internalType": "uint256",
          "name": "deadline",
          "type": "uint256"
        }
      ],
      "name": "ERC2612ExpiredSignature",
      "type": "error"
    },
    {
      "inputs": [
        {
          "internalType": "address",
          "name": "signer",
          "type": "address"
        },
        {
          "internalType": "address",
          "name": "owner",
          "type": "address"
        }
      ],
      "name": "ERC2612InvalidSigner",
      "type": "error"
    },
    {
      "inputs": [
        {
          "internalType": "uint256",
          "name": "timepoint",
          "type": "uint256"
        },
        {
          "internalType": "uint48",
          "name": "clock",
          "type": "uint48"
        }
      ],
      "name": "ERC5805FutureLookup",
      "type": "error"
    },
    {
      "inputs": [],
      "name": "ERC6372InconsistentClock",
      "type": "error"
    },
    {
      "inputs": [],
      "name": "EnforcedPause",
      "type": "error"
    },
    {
      "inputs": [],
      "name": "EnjoyMintCapExceeded",
      "type": "error"
    },
    {
      "inputs": [],
      "name": "ExpectedPause",
      "type": "error"
    },
    {
      "inputs": [
        {
          "internalType": "address",
          "name": "account",
          "type": "address"
        },
        {
          "internalType": "uint256",
          "name": "currentNonce",
          "type": "uint256"
        }
      ],
      "name": "InvalidAccountNonce",
      "type": "error"
    },
    {
      "inputs": [],
      "name": "InvalidShortString",
      "type": "error"
    },
    {
      "inputs": [],
      "name": "MintToZeroAddressBlocked",
      "type": "error"
    },
    {
      "inputs": [
        {
          "internalType": "address",
          "name": "owner",
          "type": "address"
        }
      ],
      "name": "OwnableInvalidOwner",
      "type": "error"
    },
    {
      "inputs": [
        {
          "internalType": "address",
          "name": "account",
          "type": "address"
        }
      ],
      "name": "OwnableUnauthorizedAccount",
      "type": "error"
    },
    {
      "inputs": [
        {
          "internalType": "uint8",
          "name": "bits",
          "type": "uint8"
        },
        {
          "internalType": "uint256",
          "name": "value",
          "type": "uint256"
        }
      ],
      "name": "SafeCastOverflowedUintDowncast",
      "type": "error"
    },
    {
      "inputs": [
        {
          "internalType": "string",
          "name": "str",
          "type": "string"
        }
      ],
      "name": "StringTooLong",
      "type": "error"
    },
    {
      "inputs": [
        {
          "internalType": "uint256",
          "name": "expiry",
          "type": "uint256"
        }
      ],
      "name": "VotesExpiredSignature",
      "type": "error"
    },
    {
      "anonymous": false,
      "inputs": [
        {
          "indexed": true,
          "internalType": "address",
          "name": "owner",
          "type": "address"
        },
        {
          "indexed": true,
          "internalType": "address",
          "name": "spender",
          "type": "address"
        },
        {
          "indexed": false,
          "internalType": "uint256",
          "name": "value",
          "type": "uint256"
        }
      ],
      "name": "Approval",
      "type": "event"
    },
    {
      "anonymous": false,
      "inputs": [
        {
          "indexed": true,
          "internalType": "address",
          "name": "delegator",
          "type": "address"
        },
        {
          "indexed": true,
          "internalType": "address",
          "name": "fromDelegate",
          "type": "address"
        },
        {
          "indexed": true,
          "internalType": "address",
          "name": "toDelegate",
          "type": "address"
        }
      ],
      "name": "DelegateChanged",
      "type": "event"
    },
    {
      "anonymous": false,
      "inputs": [
        {
          "indexed": true,
          "internalType": "address",
          "name": "delegate",
          "type": "address"
        },
        {
          "indexed": false,
          "internalType": "uint256",
          "name": "previousVotes",
          "type": "uint256"
        },
        {
          "indexed": false,
          "internalType": "uint256",
          "name": "newVotes",
          "type": "uint256"
        }
      ],
      "name": "DelegateVotesChanged",
      "type": "event"
    },
    {
      "anonymous": false,
      "inputs": [],
      "name": "EIP712DomainChanged",
      "type": "event"
    },
    {
      "anonymous": false,
      "inputs": [
        {
          "indexed": true,
          "internalType": "address",
          "name": "previousOwner",
          "type": "address"
        },
        {
          "indexed": true,
          "internalType": "address",
          "name": "newOwner",
          "type": "address"
        }
      ],
      "name": "OwnershipTransferred",
      "type": "event"
    },
    {
      "anonymous": false,
      "inputs": [
        {
          "indexed": false,
          "internalType": "address",
          "name": "account",
          "type": "address"
        }
      ],
      "name": "Paused",
      "type": "event"
    },
    {
      "anonymous": false,
      "inputs": [
        {
          "indexed": true,
          "internalType": "address",
          "name": "from",
          "type": "address"
        },
        {
          "indexed": true,
          "internalType": "address",
          "name": "to",
          "type": "address"
        },
        {
          "indexed": false,
          "internalType": "uint256",
          "name": "value",
          "type": "uint256"
        }
      ],
      "name": "Transfer",
      "type": "event"
    },
    {
      "anonymous": false,
      "inputs": [
        {
          "indexed": false,
          "internalType": "address",
          "name": "account",
          "type": "address"
        }
      ],
      "name": "Unpaused",
      "type": "event"
    },
    {
      "inputs": [],
      "name": "CLOCK_MODE",
      "outputs": [
        {
          "internalType": "string",
          "name": "",
          "type": "string"
        }
      ],
      "stateMutability": "view",
      "type": "function"
    },
    {
      "inputs": [],
      "name": "DOMAIN_SEPARATOR",
      "outputs": [
        {
          "internalType": "bytes32",
          "name": "",
          "type": "bytes32"
        }
      ],
      "stateMutability": "view",
      "type": "function"
    },
    {
      "inputs": [],
      "name": "MINIMUM_TIME_BETWEEN_MINTS",
      "outputs": [
        {
          "internalType": "uint32",
          "name": "",
          "type": "uint32"
        }
      ],
      "stateMutability": "view",
      "type": "function"
    },
    {
      "inputs": [],
      "name": "MINT_CAP",
      "outputs": [
        {
          "internalType": "uint8",
          "name": "",
          "type": "uint8"
        }
      ],
      "stateMutability": "view",
      "type": "function"
    },
    {
      "inputs": [],
      "name": "TOKEN_INITIAL_SUPPLY",
      "outputs": [
        {
          "internalType": "uint256",
          "name": "",
          "type": "uint256"
        }
      ],
      "stateMutability": "view",
      "type": "function"
    },
    {
      "inputs": [],
      "name": "TOKEN_NAME",
      "outputs": [
        {
          "internalType": "string",
          "name": "",
          "type": "string"
        }
      ],
      "stateMutability": "view",
      "type": "function"
    },
    {
      "inputs": [],
      "name": "TOKEN_SYMBOL",
      "outputs": [
        {
          "internalType": "string",
          "name": "",
          "type": "string"
        }
      ],
      "stateMutability": "view",
      "type": "function"
    },
    {
      "inputs": [
        {
          "internalType": "address",
          "name": "owner",
          "type": "address"
        },
        {
          "internalType": "address",
          "name": "spender",
          "type": "address"
        }
      ],
      "name": "allowance",
      "outputs": [
        {
          "internalType": "uint256",
          "name": "",
          "type": "uint256"
        }
      ],
      "stateMutability": "view",
      "type": "function"
    },
    {
      "inputs": [
        {
          "internalType": "address",
          "name": "spender",
          "type": "address"
        },
        {
          "internalType": "uint256",
          "name": "value",
          "type": "uint256"
        }
      ],
      "name": "approve",
      "outputs": [
        {
          "internalType": "bool",
          "name": "",
          "type": "bool"
        }
      ],
      "stateMutability": "nonpayable",
      "type": "function"
    },
    {
      "inputs": [
        {
          "internalType": "address",
          "name": "account",
          "type": "address"
        }
      ],
      "name": "balanceOf",
      "outputs": [
        {
          "internalType": "uint256",
          "name": "",
          "type": "uint256"
        }
      ],
      "stateMutability": "view",
      "type": "function"
    },
    {
      "inputs": [
        {
          "internalType": "uint256",
          "name": "value",
          "type": "uint256"
        }
      ],
      "name": "burn",
      "outputs": [],
      "stateMutability": "nonpayable",
      "type": "function"
    },
    {
      "inputs": [
        {
          "internalType": "address",
          "name": "account",
          "type": "address"
        },
        {
          "internalType": "uint256",
          "name": "value",
          "type": "uint256"
        }
      ],
      "name": "burnFrom",
      "outputs": [],
      "stateMutability": "nonpayable",
      "type": "function"
    },
    {
      "inputs": [
        {
          "internalType": "address",
          "name": "account",
          "type": "address"
        },
        {
          "internalType": "uint32",
          "name": "pos",
          "type": "uint32"
        }
      ],
      "name": "checkpoints",
      "outputs": [
        {
          "components": [
            {
              "internalType": "uint48",
              "name": "_key",
              "type": "uint48"
            },
            {
              "internalType": "uint208",
              "name": "_value",
              "type": "uint208"
            }
          ],
          "internalType": "struct Checkpoints.Checkpoint208",
          "name": "",
          "type": "tuple"
        }
      ],
      "stateMutability": "view",
      "type": "function"
    },
    {
      "inputs": [],
      "name": "clock",
      "outputs": [
        {
          "internalType": "uint48",
          "name": "",
          "type": "uint48"
        }
      ],
      "stateMutability": "view",
      "type": "function"
    },
    {
      "inputs": [],
      "name": "decimals",
      "outputs": [
        {
          "internalType": "uint8",
          "name": "",
          "type": "uint8"
        }
      ],
      "stateMutability": "view",
      "type": "function"
    },
    {
      "inputs": [
        {
          "internalType": "address",
          "name": "delegatee",
          "type": "address"
        }
      ],
      "name": "delegate",
      "outputs": [],
      "stateMutability": "nonpayable",
      "type": "function"
    },
    {
      "inputs": [
        {
          "internalType": "address",
          "name": "delegatee",
          "type": "address"
        },
        {
          "internalType": "uint256",
          "name": "nonce",
          "type": "uint256"
        },
        {
          "internalType": "uint256",
          "name": "expiry",
          "type": "uint256"
        },
        {
          "internalType": "uint8",
          "name": "v",
          "type": "uint8"
        },
        {
          "internalType": "bytes32",
          "name": "r",
          "type": "bytes32"
        },
        {
          "internalType": "bytes32",
          "name": "s",
          "type": "bytes32"
        }
      ],
      "name": "delegateBySig",
      "outputs": [],
      "stateMutability": "nonpayable",
      "type": "function"
    },
    {
      "inputs": [
        {
          "internalType": "address",
          "name": "account",
          "type": "address"
        }
      ],
      "name": "delegates",
      "outputs": [
        {
          "internalType": "address",
          "name": "",
          "type": "address"
        }
      ],
      "stateMutability": "view",
      "type": "function"
    },
    {
      "inputs": [],
      "name": "eip712Domain",
      "outputs": [
        {
          "internalType": "bytes1",
          "name": "fields",
          "type": "bytes1"
        },
        {
          "internalType": "string",
          "name": "name",
          "type": "string"
        },
        {
          "internalType": "string",
          "name": "version",
          "type": "string"
        },
        {
          "internalType": "uint256",
          "name": "chainId",
          "type": "uint256"
        },
        {
          "internalType": "address",
          "name": "verifyingContract",
          "type": "address"
        },
        {
          "internalType": "bytes32",
          "name": "salt",
          "type": "bytes32"
        },
        {
          "internalType": "uint256[]",
          "name": "extensions",
          "type": "uint256[]"
        }
      ],
      "stateMutability": "view",
      "type": "function"
    },
    {
      "inputs": [
        {
          "internalType": "uint256",
          "name": "timepoint",
          "type": "uint256"
        }
      ],
      "name": "getPastTotalSupply",
      "outputs": [
        {
          "internalType": "uint256",
          "name": "",
          "type": "uint256"
        }
      ],
      "stateMutability": "view",
      "type": "function"
    },
    {
      "inputs": [
        {
          "internalType": "address",
          "name": "account",
          "type": "address"
        },
        {
          "internalType": "uint256",
          "name": "timepoint",
          "type": "uint256"
        }
      ],
      "name": "getPastVotes",
      "outputs": [
        {
          "internalType": "uint256",
          "name": "",
          "type": "uint256"
        }
      ],
      "stateMutability": "view",
      "type": "function"
    },
    {
      "inputs": [
        {
          "internalType": "address",
          "name": "account",
          "type": "address"
        }
      ],
      "name": "getVotes",
      "outputs": [
        {
          "internalType": "uint256",
          "name": "",
          "type": "uint256"
        }
      ],
      "stateMutability": "view",
      "type": "function"
    },
    {
      "inputs": [
        {
          "internalType": "address",
          "name": "to",
          "type": "address"
        },
        {
          "internalType": "uint96",
          "name": "amount",
          "type": "uint96"
        }
      ],
      "name": "mint",
      "outputs": [],
      "stateMutability": "nonpayable",
      "type": "function"
    },
    {
      "inputs": [],
      "name": "name",
      "outputs": [
        {
          "internalType": "string",
          "name": "",
          "type": "string"
        }
      ],
      "stateMutability": "view",
      "type": "function"
    },
    {
      "inputs": [
        {
          "internalType": "address",
          "name": "owner",
          "type": "address"
        }
      ],
      "name": "nonces",
      "outputs": [
        {
          "internalType": "uint256",
          "name": "",
          "type": "uint256"
        }
      ],
      "stateMutability": "view",
      "type": "function"
    },
    {
      "inputs": [
        {
          "internalType": "address",
          "name": "account",
          "type": "address"
        }
      ],
      "name": "numCheckpoints",
      "outputs": [
        {
          "internalType": "uint32",
          "name": "",
          "type": "uint32"
        }
      ],
      "stateMutability": "view",
      "type": "function"
    },
    {
      "inputs": [],
      "name": "owner",
      "outputs": [
        {
          "internalType": "address",
          "name": "",
          "type": "address"
        }
      ],
      "stateMutability": "view",
      "type": "function"
    },
    {
      "inputs": [],
      "name": "pause",
      "outputs": [],
      "stateMutability": "nonpayable",
      "type": "function"
    },
    {
      "inputs": [],
      "name": "paused",
      "outputs": [
        {
          "internalType": "bool",
          "name": "",
          "type": "bool"
        }
      ],
      "stateMutability": "view",
      "type": "function"
    },
    {
      "inputs": [
        {
          "internalType": "address",
          "name": "owner",
          "type": "address"
        },
        {
          "internalType": "address",
          "name": "spender",
          "type": "address"
        },
        {
          "internalType": "uint256",
          "name": "value",
          "type": "uint256"
        },
        {
          "internalType": "uint256",
          "name": "deadline",
          "type": "uint256"
        },
        {
          "internalType": "uint8",
          "name": "v",
          "type": "uint8"
        },
        {
          "internalType": "bytes32",
          "name": "r",
          "type": "bytes32"
        },
        {
          "internalType": "bytes32",
          "name": "s",
          "type": "bytes32"
        }
      ],
      "name": "permit",
      "outputs": [],
      "stateMutability": "nonpayable",
      "type": "function"
    },
    {
      "inputs": [],
      "name": "renounceOwnership",
      "outputs": [],
      "stateMutability": "nonpayable",
      "type": "function"
    },
    {
      "inputs": [],
      "name": "symbol",
      "outputs": [
        {
          "internalType": "string",
          "name": "",
          "type": "string"
        }
      ],
      "stateMutability": "view",
      "type": "function"
    },
    {
      "inputs": [],
      "name": "totalSupply",
      "outputs": [
        {
          "internalType": "uint256",
          "name": "",
          "type": "uint256"
        }
      ],
      "stateMutability": "view",
      "type": "function"
    },
    {
      "inputs": [
        {
          "internalType": "address",
          "name": "to",
          "type": "address"
        },
        {
          "internalType": "uint256",
          "name": "value",
          "type": "uint256"
        }
      ],
      "name": "transfer",
      "outputs": [
        {
          "internalType": "bool",
          "name": "",
          "type": "bool"
        }
      ],
      "stateMutability": "nonpayable",
      "type": "function"
    },
    {
      "inputs": [
        {
          "internalType": "address",
          "name": "from",
          "type": "address"
        },
        {
          "internalType": "address",
          "name": "to",
          "type": "address"
        },
        {
          "internalType": "uint256",
          "name": "value",
          "type": "uint256"
        }
      ],
      "name": "transferFrom",
      "outputs": [
        {
          "internalType": "bool",
          "name": "",
          "type": "bool"
        }
      ],
      "stateMutability": "nonpayable",
      "type": "function"
    },
    {
      "inputs": [
        {
          "internalType": "address",
          "name": "newOwner",
          "type": "address"
        }
      ],
      "name": "transferOwnership",
      "outputs": [],
      "stateMutability": "nonpayable",
      "type": "function"
    },
    {
      "inputs": [],
      "name": "unpause",
      "outputs": [],
      "stateMutability": "nonpayable",
      "type": "function"
    }
  ],
  "bytecode": "0x6101606040523480156200001257600080fd5b50336040518060400160405280600581526020017f456e6a6f79000000000000000000000000000000000000000000000000000000815250806040518060400160405280600181526020017f31000000000000000000000000000000000000000000000000000000000000008152506040518060400160405280600581526020017f456e6a6f790000000000000000000000000000000000000000000000000000008152506040518060400160405280600581526020017f454e4a4f590000000000000000000000000000000000000000000000000000008152508160039081620000fe91906200156a565b5080600490816200011091906200156a565b5050506000600560006101000a81548160ff02191690831515021790555062000144600683620002ad60201b90919060201c565b610120818152505062000162600782620002ad60201b90919060201c565b6101408181525050818051906020012060e08181525050808051906020012061010081815250504660a08181525050620001a16200030560201b60201c565b608081815250503073ffffffffffffffffffffffffffffffffffffffff1660c08173ffffffffffffffffffffffffffffffffffffffff1681525050505050600073ffffffffffffffffffffffffffffffffffffffff168173ffffffffffffffffffffffffffffffffffffffff1603620002545760006040517f1e4fbdf70000000000000000000000000000000000000000000000000000000081526004016200024b919062001696565b60405180910390fd5b62000265816200036260201b60201c565b50620002a7336200027b6200042860201b60201c565b600a62000289919062001843565b6419debd01c76200029b919062001894565b6200043160201b60201c565b62001d6a565b6000602083511015620002d357620002cb83620004be60201b60201c565b9050620002ff565b82620002e5836200052b60201b60201c565b6000019081620002f691906200156a565b5060ff60001b90505b92915050565b60007f8b73c3c69bb8fe3d512ecc4cf759cc79239f7b179b0ffacaa9a75d522b39400f60e051610100514630604051602001620003479594939291906200190b565b60405160208183030381529060405280519060200120905090565b6000600c60009054906101000a900473ffffffffffffffffffffffffffffffffffffffff16905081600c60006101000a81548173ffffffffffffffffffffffffffffffffffffffff021916908373ffffffffffffffffffffffffffffffffffffffff1602179055508173ffffffffffffffffffffffffffffffffffffffff168173ffffffffffffffffffffffffffffffffffffffff167f8be0079c531659141344cd1fd0a4f28419497f9722a3daafe3b4186f6b6457e060405160405180910390a35050565b60006012905090565b600073ffffffffffffffffffffffffffffffffffffffff168273ffffffffffffffffffffffffffffffffffffffff1603620004a65760006040517fec442f050000000000000000000000000000000000000000000000000000000081526004016200049d919062001696565b60405180910390fd5b620004ba600083836200053560201b60201c565b5050565b600080829050601f815111156200050e57826040517f305a27a9000000000000000000000000000000000000000000000000000000008152600401620005059190620019f7565b60405180910390fd5b8051816200051c9062001a4d565b60001c1760001b915050919050565b6000819050919050565b620005488383836200054d60201b60201c565b505050565b620005608383836200062260201b60201c565b600073ffffffffffffffffffffffffffffffffffffffff168373ffffffffffffffffffffffffffffffffffffffff16036200060a576000620005a76200064a60201b60201c565b90506000620005bb6200065460201b60201c565b905080821115620006075781816040517f1cb15d26000000000000000000000000000000000000000000000000000000008152600401620005fe92919062001abd565b60405180910390fd5b50505b6200061d8383836200067860201b60201c565b505050565b620006326200077e60201b60201c565b62000645838383620007c860201b60201c565b505050565b6000600254905090565b600079ffffffffffffffffffffffffffffffffffffffffffffffffffff8016905090565b600073ffffffffffffffffffffffffffffffffffffffff168373ffffffffffffffffffffffffffffffffffffffff1603620006df57620006dc600b620009f860201b6200124b17620006d08462000a1060201b60201c565b62000a8160201b60201c565b50505b600073ffffffffffffffffffffffffffffffffffffffff168273ffffffffffffffffffffffffffffffffffffffff1603620007465762000743600b62000ad160201b6200126117620007378462000a1060201b60201c565b62000a8160201b60201c565b50505b620007796200075b8462000ae960201b60201c565b6200076c8462000ae960201b60201c565b8362000b5260201b60201c565b505050565b6200078e62000e0560201b60201c565b15620007c6576040517fd93c066500000000000000000000000000000000000000000000000000000000815260040160405180910390fd5b565b600073ffffffffffffffffffffffffffffffffffffffff168373ffffffffffffffffffffffffffffffffffffffff16036200081e57806002600082825462000811919062001aea565b92505081905550620008f4565b60008060008573ffffffffffffffffffffffffffffffffffffffff1673ffffffffffffffffffffffffffffffffffffffff16815260200190815260200160002054905081811015620008ad578381836040517fe450d38c000000000000000000000000000000000000000000000000000000008152600401620008a49392919062001b25565b60405180910390fd5b8181036000808673ffffffffffffffffffffffffffffffffffffffff1673ffffffffffffffffffffffffffffffffffffffff16815260200190815260200160002081905550505b600073ffffffffffffffffffffffffffffffffffffffff168273ffffffffffffffffffffffffffffffffffffffff16036200093f57806002600082825403925050819055506200098c565b806000808473ffffffffffffffffffffffffffffffffffffffff1673ffffffffffffffffffffffffffffffffffffffff168152602001908152602001600020600082825401925050819055505b8173ffffffffffffffffffffffffffffffffffffffff168373ffffffffffffffffffffffffffffffffffffffff167fddf252ad1be2c89b69c2b068fc378daa952ba7f163c4a11628f55a4df523b3ef83604051620009eb919062001b62565b60405180910390a3505050565b6000818362000a08919062001ba5565b905092915050565b600079ffffffffffffffffffffffffffffffffffffffffffffffffffff801682111562000a795760d0826040517f6dfcc65000000000000000000000000000000000000000000000000000000000815260040162000a7092919062001c3d565b60405180910390fd5b819050919050565b60008062000ac562000a9862000e1c60201b60201c565b62000ab462000aad8862000e3360201b60201c565b868860201c565b8762000ea760201b9092919060201c565b91509150935093915050565b6000818362000ae1919062001c6a565b905092915050565b6000600960008373ffffffffffffffffffffffffffffffffffffffff1673ffffffffffffffffffffffffffffffffffffffff16815260200190815260200160002060009054906101000a900473ffffffffffffffffffffffffffffffffffffffff169050919050565b8173ffffffffffffffffffffffffffffffffffffffff168373ffffffffffffffffffffffffffffffffffffffff161415801562000b8f5750600081115b1562000e0057600073ffffffffffffffffffffffffffffffffffffffff168373ffffffffffffffffffffffffffffffffffffffff161462000cca5760008062000c39600a60008773ffffffffffffffffffffffffffffffffffffffff1673ffffffffffffffffffffffffffffffffffffffff16815260200190815260200160002062000ad160201b620012611762000c2d8662000a1060201b60201c565b62000a8160201b60201c565b79ffffffffffffffffffffffffffffffffffffffffffffffffffff16915079ffffffffffffffffffffffffffffffffffffffffffffffffffff1691508473ffffffffffffffffffffffffffffffffffffffff167fdec2bacdd2f05b59de34da9b523dff8be42e5e38e818c82fdb0bae774387a724838360405162000cbf92919062001abd565b60405180910390a250505b600073ffffffffffffffffffffffffffffffffffffffff168273ffffffffffffffffffffffffffffffffffffffff161462000dff5760008062000d6e600a60008673ffffffffffffffffffffffffffffffffffffffff1673ffffffffffffffffffffffffffffffffffffffff168152602001908152602001600020620009f860201b6200124b1762000d628662000a1060201b60201c565b62000a8160201b60201c565b79ffffffffffffffffffffffffffffffffffffffffffffffffffff16915079ffffffffffffffffffffffffffffffffffffffffffffffffffff1691508373ffffffffffffffffffffffffffffffffffffffff167fdec2bacdd2f05b59de34da9b523dff8be42e5e38e818c82fdb0bae774387a724838360405162000df492919062001abd565b60405180910390a250505b5b505050565b6000600560009054906101000a900460ff16905090565b600062000e2e62000ecc60201b60201c565b905090565b600080826000018054905090506000811462000e9c5762000e6c8360000160018362000e60919062001cbf565b62000ee460201b60201c565b60000160069054906101000a900479ffffffffffffffffffffffffffffffffffffffffffffffffffff1662000e9f565b60005b915050919050565b60008062000ec085600001858562000ef960201b60201c565b91509150935093915050565b600062000edf436200129360201b60201c565b905090565b60008260005281602060002001905092915050565b6000806000858054905090506000811115620011a357600062000f318760018462000f25919062001cbf565b62000ee460201b60201c565b6040518060400160405290816000820160009054906101000a900465ffffffffffff1665ffffffffffff1665ffffffffffff1681526020016000820160069054906101000a900479ffffffffffffffffffffffffffffffffffffffffffffffffffff1679ffffffffffffffffffffffffffffffffffffffffffffffffffff1679ffffffffffffffffffffffffffffffffffffffffffffffffffff168152505090508565ffffffffffff16816000015165ffffffffffff16111562001021576040517f2520601d00000000000000000000000000000000000000000000000000000000815260040160405180910390fd5b8565ffffffffffff16816000015165ffffffffffff1603620010b157846200105e8860018562001052919062001cbf565b62000ee460201b60201c565b60000160066101000a81548179ffffffffffffffffffffffffffffffffffffffffffffffffffff021916908379ffffffffffffffffffffffffffffffffffffffffffffffffffff16021790555062001191565b8660405180604001604052808865ffffffffffff1681526020018779ffffffffffffffffffffffffffffffffffffffffffffffffffff168152509080600181540180825580915050600190039060005260206000200160009091909190915060008201518160000160006101000a81548165ffffffffffff021916908365ffffffffffff16021790555060208201518160000160066101000a81548179ffffffffffffffffffffffffffffffffffffffffffffffffffff021916908379ffffffffffffffffffffffffffffffffffffffffffffffffffff16021790555050505b8060200151859350935050506200128b565b8560405180604001604052808765ffffffffffff1681526020018679ffffffffffffffffffffffffffffffffffffffffffffffffffff168152509080600181540180825580915050600190039060005260206000200160009091909190915060008201518160000160006101000a81548165ffffffffffff021916908365ffffffffffff16021790555060208201518160000160066101000a81548179ffffffffffffffffffffffffffffffffffffffffffffffffffff021916908379ffffffffffffffffffffffffffffffffffffffffffffffffffff160217905550505060008492509250505b935093915050565b600065ffffffffffff8016821115620012e8576030826040517f6dfcc650000000000000000000000000000000000000000000000000000000008152600401620012df92919062001d3d565b60405180910390fd5b819050919050565b600081519050919050565b7f4e487b7100000000000000000000000000000000000000000000000000000000600052604160045260246000fd5b7f4e487b7100000000000000000000000000000000000000000000000000000000600052602260045260246000fd5b600060028204905060018216806200137257607f821691505b6020821081036200138857620013876200132a565b5b50919050565b60008190508160005260206000209050919050565b60006020601f8301049050919050565b600082821b905092915050565b600060088302620013f27fffffffffffffffffffffffffffffffffffffffffffffffffffffffffffffffff82620013b3565b620013fe8683620013b3565b95508019841693508086168417925050509392505050565b6000819050919050565b6000819050919050565b60006200144b620014456200143f8462001416565b62001420565b62001416565b9050919050565b6000819050919050565b62001467836200142a565b6200147f620014768262001452565b848454620013c0565b825550505050565b600090565b6200149662001487565b620014a38184846200145c565b505050565b5b81811015620014cb57620014bf6000826200148c565b600181019050620014a9565b5050565b601f8211156200151a57620014e4816200138e565b620014ef84620013a3565b81016020851015620014ff578190505b620015176200150e85620013a3565b830182620014a8565b50505b505050565b600082821c905092915050565b60006200153f600019846008026200151f565b1980831691505092915050565b60006200155a83836200152c565b9150826002028217905092915050565b6200157582620012f0565b67ffffffffffffffff811115620015915762001590620012fb565b5b6200159d825462001359565b620015aa828285620014cf565b600060209050601f831160018114620015e25760008415620015cd578287015190505b620015d985826200154c565b86555062001649565b601f198416620015f2866200138e565b60005b828110156200161c57848901518255600182019150602085019450602081019050620015f5565b868310156200163c578489015162001638601f8916826200152c565b8355505b6001600288020188555050505b505050505050565b600073ffffffffffffffffffffffffffffffffffffffff82169050919050565b60006200167e8262001651565b9050919050565b620016908162001671565b82525050565b6000602082019050620016ad600083018462001685565b92915050565b7f4e487b7100000000000000000000000000000000000000000000000000000000600052601160045260246000fd5b60008160011c9050919050565b6000808291508390505b60018511156200174157808604811115620017195762001718620016b3565b5b6001851615620017295780820291505b80810290506200173985620016e2565b9450620016f9565b94509492505050565b6000826200175c57600190506200182f565b816200176c57600090506200182f565b81600181146200178557600281146200179057620017c6565b60019150506200182f565b60ff841115620017a557620017a4620016b3565b5b8360020a915084821115620017bf57620017be620016b3565b5b506200182f565b5060208310610133831016604e8410600b8410161715620018005782820a905083811115620017fa57620017f9620016b3565b5b6200182f565b6200180f8484846001620016ef565b92509050818404811115620018295762001828620016b3565b5b81810290505b9392505050565b600060ff82169050919050565b6000620018508262001416565b91506200185d8362001836565b92506200188c7fffffffffffffffffffffffffffffffffffffffffffffffffffffffffffffffff84846200174a565b905092915050565b6000620018a18262001416565b9150620018ae8362001416565b9250828202620018be8162001416565b91508282048414831517620018d857620018d7620016b3565b5b5092915050565b6000819050919050565b620018f481620018df565b82525050565b620019058162001416565b82525050565b600060a082019050620019226000830188620018e9565b620019316020830187620018e9565b620019406040830186620018e9565b6200194f6060830185620018fa565b6200195e608083018462001685565b9695505050505050565b600082825260208201905092915050565b60005b83811015620019995780820151818401526020810190506200197c565b60008484015250505050565b6000601f19601f8301169050919050565b6000620019c382620012f0565b620019cf818562001968565b9350620019e181856020860162001979565b620019ec81620019a5565b840191505092915050565b6000602082019050818103600083015262001a138184620019b6565b905092915050565b600081519050919050565b6000819050602082019050919050565b600062001a448251620018df565b80915050919050565b600062001a5a8262001a1b565b8262001a668462001a26565b905062001a738162001a36565b9250602082101562001ab65762001ab17fffffffffffffffffffffffffffffffffffffffffffffffffffffffffffffffff83602003600802620013b3565b831692505b5050919050565b600060408201905062001ad46000830185620018fa565b62001ae36020830184620018fa565b9392505050565b600062001af78262001416565b915062001b048362001416565b925082820190508082111562001b1f5762001b1e620016b3565b5b92915050565b600060608201905062001b3c600083018662001685565b62001b4b6020830185620018fa565b62001b5a6040830184620018fa565b949350505050565b600060208201905062001b796000830184620018fa565b92915050565b600079ffffffffffffffffffffffffffffffffffffffffffffffffffff82169050919050565b600062001bb28262001b7f565b915062001bbf8362001b7f565b9250828201905079ffffffffffffffffffffffffffffffffffffffffffffffffffff81111562001bf45762001bf3620016b3565b5b92915050565b6000819050919050565b600062001c2562001c1f62001c198462001bfa565b62001420565b62001836565b9050919050565b62001c378162001c04565b82525050565b600060408201905062001c54600083018562001c2c565b62001c636020830184620018fa565b9392505050565b600062001c778262001b7f565b915062001c848362001b7f565b9250828203905079ffffffffffffffffffffffffffffffffffffffffffffffffffff81111562001cb95762001cb8620016b3565b5b92915050565b600062001ccc8262001416565b915062001cd98362001416565b925082820390508181111562001cf45762001cf3620016b3565b5b92915050565b6000819050919050565b600062001d2562001d1f62001d198462001cfa565b62001420565b62001836565b9050919050565b62001d378162001d04565b82525050565b600060408201905062001d54600083018562001d2c565b62001d636020830184620018fa565b9392505050565b60805160a05160c05160e0516101005161012051610140516141c762001dc56000396000611b0d01526000611ad201526000611f2e01526000611f0d015260006115260152600061157c015260006115a501526141c76000f3fe608060405234801561001057600080fd5b50600436106102275760003560e01c80636fcfff451161013057806391ddadf4116100b8578063c3cda5201161007c578063c3cda52014610662578063d505accf1461067e578063dd62ed3e1461069a578063f1127ed8146106ca578063f2fde38b146106fa57610227565b806391ddadf4146105a857806395d89b41146105c657806398f1312e146105e45780639ab24eb014610602578063a9059cbb1461063257610227565b80637ecebe00116100ff5780637ecebe00146104fc5780638456cb591461052c57806384b0196e146105365780638da5cb5b1461055a5780638e539e8c1461057857610227565b80636fcfff451461047657806370a08231146104a6578063715018a6146104d657806379cc6790146104e057610227565b80633644e515116101b357806342966c681161018257806342966c68146103d25780634bf5d7e9146103ee578063587cde1e1461040c5780635c19a95c1461043c5780635c975abb1461045857610227565b80633644e5151461035c57806336c20dcf1461037a5780633a46b1a8146103985780633f4ba83a146103c857610227565b806318821400116101fa57806318821400146102b65780631b025a40146102d457806323b872dd146102f05780632a90531814610320578063313ce5671461033e57610227565b806306fdde031461022c578063095ea7b31461024a5780630d8c02051461027a57806318160ddd14610298575b600080fd5b610234610716565b60405161024191906133ab565b60405180910390f35b610264600480360381019061025f9190613466565b6107a8565b60405161027191906134c1565b60405180910390f35b6102826107cb565b60405161028f91906134fb565b60405180910390f35b6102a06107d3565b6040516102ad9190613525565b60405180910390f35b6102be6107dd565b6040516102cb91906133ab565b60405180910390f35b6102ee60048036038101906102e99190613584565b610816565b005b61030a600480360381019061030591906135c4565b61090a565b60405161031791906134c1565b60405180910390f35b610328610939565b60405161033591906133ab565b60405180910390f35b610346610972565b6040516103539190613633565b60405180910390f35b61036461097b565b6040516103719190613667565b60405180910390f35b61038261098a565b60405161038f9190613525565b60405180910390f35b6103b260048036038101906103ad9190613466565b610993565b6040516103bf9190613525565b60405180910390f35b6103d0610a6c565b005b6103ec60048036038101906103e79190613682565b610a7e565b005b6103f6610a92565b60405161040391906133ab565b60405180910390f35b610426600480360381019061042191906136af565b610b26565b60405161043391906136eb565b60405180910390f35b610456600480360381019061045191906136af565b610b8f565b005b610460610ba9565b60405161046d91906134c1565b60405180910390f35b610490600480360381019061048b91906136af565b610bc0565b60405161049d91906134fb565b60405180910390f35b6104c060048036038101906104bb91906136af565b610bd2565b6040516104cd9190613525565b60405180910390f35b6104de610c1a565b005b6104fa60048036038101906104f59190613466565b610c2e565b005b610516600480360381019061051191906136af565b610c4e565b6040516105239190613525565b60405180910390f35b610534610c60565b005b61053e610c72565b60405161055197969594939291906137ff565b60405180910390f35b610562610d1c565b60405161056f91906136eb565b60405180910390f35b610592600480360381019061058d9190613682565b610d46565b60405161059f9190613525565b60405180910390f35b6105b0610de1565b6040516105bd91906138a4565b60405180910390f35b6105ce610df0565b6040516105db91906133ab565b60405180910390f35b6105ec610e82565b6040516105f99190613633565b60405180910390f35b61061c600480360381019061061791906136af565b610e87565b6040516106299190613525565b60405180910390f35b61064c60048036038101906106479190613466565b610ef3565b60405161065991906134c1565b60405180910390f35b61067c60048036038101906106779190613917565b610f16565b005b610698600480360381019061069391906139a4565b610fdc565b005b6106b460048036038101906106af9190613a46565b611124565b6040516106c19190613525565b60405180910390f35b6106e460048036038101906106df9190613ab2565b6111ab565b6040516106f19190613b65565b60405180910390f35b610714600480360381019061070f91906136af565b6111c5565b005b60606003805461072590613baf565b80601f016020809104026020016040519081016040528092919081815260200182805461075190613baf565b801561079e5780601f106107735761010080835404028352916020019161079e565b820191906000526020600020905b81548152906001019060200180831161078157829003601f168201915b5050505050905090565b6000806107b3611277565b90506107c081858561127f565b600191505092915050565b6301e1338081565b6000600254905090565b6040518060400160405280600581526020017f456e6a6f7900000000000000000000000000000000000000000000000000000081525081565b61081e611291565b600073ffffffffffffffffffffffffffffffffffffffff168273ffffffffffffffffffffffffffffffffffffffff1603610884576040517ffa7b55d600000000000000000000000000000000000000000000000000000000815260040160405180910390fd5b6064600160ff166108936107d3565b61089d9190613c0f565b6108a79190613c80565b816bffffffffffffffffffffffff1611156108ee576040517f291d6e8c00000000000000000000000000000000000000000000000000000000815260040160405180910390fd5b61090682826bffffffffffffffffffffffff16611318565b5050565b600080610915611277565b905061092285828561139a565b61092d85858561142e565b60019150509392505050565b6040518060400160405280600581526020017f454e4a4f5900000000000000000000000000000000000000000000000000000081525081565b60006012905090565b6000610985611522565b905090565b6419debd01c781565b60008061099e610de1565b90508065ffffffffffff1683106109ee5782816040517fecd3f81e0000000000000000000000000000000000000000000000000000000081526004016109e5929190613cb1565b60405180910390fd5b610a476109fa846115d9565b600a60008773ffffffffffffffffffffffffffffffffffffffff1673ffffffffffffffffffffffffffffffffffffffff16815260200190815260200160002061163390919063ffffffff16565b79ffffffffffffffffffffffffffffffffffffffffffffffffffff1691505092915050565b610a74611291565b610a7c61172d565b565b610a8f610a89611277565b82611790565b50565b6060610a9c611812565b65ffffffffffff16610aac610de1565b65ffffffffffff1614610aeb576040517f6ff0714000000000000000000000000000000000000000000000000000000000815260040160405180910390fd5b6040518060400160405280601d81526020017f6d6f64653d626c6f636b6e756d6265722666726f6d3d64656661756c74000000815250905090565b6000600960008373ffffffffffffffffffffffffffffffffffffffff1673ffffffffffffffffffffffffffffffffffffffff16815260200190815260200160002060009054906101000a900473ffffffffffffffffffffffffffffffffffffffff169050919050565b6000610b99611277565b9050610ba58183611822565b5050565b6000600560009054906101000a900460ff16905090565b6000610bcb82611936565b9050919050565b60008060008373ffffffffffffffffffffffffffffffffffffffff1673ffffffffffffffffffffffffffffffffffffffff168152602001908152602001600020549050919050565b610c22611291565b610c2c600061198e565b565b610c4082610c3a611277565b8361139a565b610c4a8282611790565b5050565b6000610c5982611a54565b9050919050565b610c68611291565b610c70611a66565b565b600060608060008060006060610c86611ac9565b610c8e611b04565b46306000801b600067ffffffffffffffff811115610caf57610cae613cda565b5b604051908082528060200260200182016040528015610cdd5781602001602082028036833780820191505090505b507f0f00000000000000000000000000000000000000000000000000000000000000959493929190965096509650965096509650965090919293949596565b6000600c60009054906101000a900473ffffffffffffffffffffffffffffffffffffffff16905090565b600080610d51610de1565b90508065ffffffffffff168310610da15782816040517fecd3f81e000000000000000000000000000000000000000000000000000000008152600401610d98929190613cb1565b60405180910390fd5b610dbd610dad846115d9565b600b61163390919063ffffffff16565b79ffffffffffffffffffffffffffffffffffffffffffffffffffff16915050919050565b6000610deb611812565b905090565b606060048054610dff90613baf565b80601f0160208091040260200160405190810160405280929190818152602001828054610e2b90613baf565b8015610e785780601f10610e4d57610100808354040283529160200191610e78565b820191906000526020600020905b815481529060010190602001808311610e5b57829003601f168201915b5050505050905090565b600181565b6000610ed0600a60008473ffffffffffffffffffffffffffffffffffffffff1673ffffffffffffffffffffffffffffffffffffffff168152602001908152602001600020611b3f565b79ffffffffffffffffffffffffffffffffffffffffffffffffffff169050919050565b600080610efe611277565b9050610f0b81858561142e565b600191505092915050565b83421115610f5b57836040517f4683af0e000000000000000000000000000000000000000000000000000000008152600401610f529190613525565b60405180910390fd5b6000610fbd610fb57fe48329057bfd03d55e49b547132e39cffd9c1820ad7b9d4c5307691425d15adf898989604051602001610f9a9493929190613d09565b60405160208183030381529060405280519060200120611ba7565b858585611bc1565b9050610fc98187611bf1565b610fd38188611822565b50505050505050565b8342111561102157836040517f627913020000000000000000000000000000000000000000000000000000000081526004016110189190613525565b60405180910390fd5b60007f6e71edae12b1b97f4d1f60370fef10105fa2faae0126114a169c64845d6126c98888886110508c611c49565b8960405160200161106696959493929190613d4e565b604051602081830303815290604052805190602001209050600061108982611ba7565b9050600061109982878787611bc1565b90508973ffffffffffffffffffffffffffffffffffffffff168173ffffffffffffffffffffffffffffffffffffffff161461110d57808a6040517f4b800e46000000000000000000000000000000000000000000000000000000008152600401611104929190613daf565b60405180910390fd5b6111188a8a8a61127f565b50505050505050505050565b6000600160008473ffffffffffffffffffffffffffffffffffffffff1673ffffffffffffffffffffffffffffffffffffffff16815260200190815260200160002060008373ffffffffffffffffffffffffffffffffffffffff1673ffffffffffffffffffffffffffffffffffffffff16815260200190815260200160002054905092915050565b6111b36132dd565b6111bd8383611ca0565b905092915050565b6111cd611291565b600073ffffffffffffffffffffffffffffffffffffffff168173ffffffffffffffffffffffffffffffffffffffff160361123f5760006040517f1e4fbdf700000000000000000000000000000000000000000000000000000000815260040161123691906136eb565b60405180910390fd5b6112488161198e565b50565b600081836112599190613dd8565b905092915050565b6000818361126f9190613e26565b905092915050565b600033905090565b61128c8383836001611d01565b505050565b611299611277565b73ffffffffffffffffffffffffffffffffffffffff166112b7610d1c565b73ffffffffffffffffffffffffffffffffffffffff1614611316576112da611277565b6040517f118cdaa700000000000000000000000000000000000000000000000000000000815260040161130d91906136eb565b60405180910390fd5b565b600073ffffffffffffffffffffffffffffffffffffffff168273ffffffffffffffffffffffffffffffffffffffff160361138a5760006040517fec442f0500000000000000000000000000000000000000000000000000000000815260040161138191906136eb565b60405180910390fd5b61139660008383611ed8565b5050565b60006113a68484611124565b90507fffffffffffffffffffffffffffffffffffffffffffffffffffffffffffffffff81146114285781811015611418578281836040517ffb8f41b200000000000000000000000000000000000000000000000000000000815260040161140f93929190613e74565b60405180910390fd5b61142784848484036000611d01565b5b50505050565b600073ffffffffffffffffffffffffffffffffffffffff168373ffffffffffffffffffffffffffffffffffffffff16036114a05760006040517f96c6fd1e00000000000000000000000000000000000000000000000000000000815260040161149791906136eb565b60405180910390fd5b600073ffffffffffffffffffffffffffffffffffffffff168273ffffffffffffffffffffffffffffffffffffffff16036115125760006040517fec442f0500000000000000000000000000000000000000000000000000000000815260040161150991906136eb565b60405180910390fd5b61151d838383611ed8565b505050565b60007f000000000000000000000000000000000000000000000000000000000000000073ffffffffffffffffffffffffffffffffffffffff163073ffffffffffffffffffffffffffffffffffffffff1614801561159e57507f000000000000000000000000000000000000000000000000000000000000000046145b156115cb577f000000000000000000000000000000000000000000000000000000000000000090506115d6565b6115d3611ee8565b90505b90565b600065ffffffffffff801682111561162b576030826040517f6dfcc650000000000000000000000000000000000000000000000000000000008152600401611622929190613ef0565b60405180910390fd5b819050919050565b6000808360000180549050905060008082905060058311156116bb57600061165a84611f7e565b846116659190613f19565b90506116748760000182612077565b60000160009054906101000a900465ffffffffffff1665ffffffffffff168665ffffffffffff1610156116a9578091506116b9565b6001816116b69190613f4d565b92505b505b60006116cc8760000187858561208c565b90506000811461171e576116ef876000016001836116ea9190613f19565b612077565b60000160069054906101000a900479ffffffffffffffffffffffffffffffffffffffffffffffffffff16611721565b60005b94505050505092915050565b611735612105565b6000600560006101000a81548160ff0219169083151502179055507f5db9ee0a495bf2e6ff9c91a7834c1ba4fdd244a5e8aa4e537bd38aeae4b073aa611779611277565b60405161178691906136eb565b60405180910390a1565b600073ffffffffffffffffffffffffffffffffffffffff168273ffffffffffffffffffffffffffffffffffffffff16036118025760006040517f96c6fd1e0000000000000000000000000000000000000000000000000000000081526004016117f991906136eb565b60405180910390fd5b61180e82600083611ed8565b5050565b600061181d436115d9565b905090565b600061182d83610b26565b905081600960008573ffffffffffffffffffffffffffffffffffffffff1673ffffffffffffffffffffffffffffffffffffffff16815260200190815260200160002060006101000a81548173ffffffffffffffffffffffffffffffffffffffff021916908373ffffffffffffffffffffffffffffffffffffffff1602179055508173ffffffffffffffffffffffffffffffffffffffff168173ffffffffffffffffffffffffffffffffffffffff168473ffffffffffffffffffffffffffffffffffffffff167f3134e8a2e6d97e929a7e54011ea5485d7d196dd5f0ba4d4ef95803e8e3fc257f60405160405180910390a4611931818361192c86612145565b612157565b505050565b6000611987611982600a60008573ffffffffffffffffffffffffffffffffffffffff1673ffffffffffffffffffffffffffffffffffffffff1681526020019081526020016000206123d0565b6123e1565b9050919050565b6000600c60009054906101000a900473ffffffffffffffffffffffffffffffffffffffff16905081600c60006101000a81548173ffffffffffffffffffffffffffffffffffffffff021916908373ffffffffffffffffffffffffffffffffffffffff1602179055508173ffffffffffffffffffffffffffffffffffffffff168173ffffffffffffffffffffffffffffffffffffffff167f8be0079c531659141344cd1fd0a4f28419497f9722a3daafe3b4186f6b6457e060405160405180910390a35050565b6000611a5f82612439565b9050919050565b611a6e612482565b6001600560006101000a81548160ff0219169083151502179055507f62e78cea01bee320cd4e420270b5ea74000d11b0c9f74754ebdbfc544b05a258611ab2611277565b604051611abf91906136eb565b60405180910390a1565b6060611aff60067f00000000000000000000000000000000000000000000000000000000000000006124c390919063ffffffff16565b905090565b6060611b3a60077f00000000000000000000000000000000000000000000000000000000000000006124c390919063ffffffff16565b905090565b6000808260000180549050905060008114611b9c57611b6d83600001600183611b689190613f19565b612077565b60000160069054906101000a900479ffffffffffffffffffffffffffffffffffffffffffffffffffff16611b9f565b60005b915050919050565b6000611bba611bb4611522565b83612573565b9050919050565b600080600080611bd3888888886125b4565b925092509250611be382826126a8565b829350505050949350505050565b6000611bfc83611c49565b9050808214611c445782816040517f752d88c0000000000000000000000000000000000000000000000000000000008152600401611c3b929190613f81565b60405180910390fd5b505050565b6000600860008373ffffffffffffffffffffffffffffffffffffffff1673ffffffffffffffffffffffffffffffffffffffff1681526020019081526020016000206000815480929190600101919050559050919050565b611ca86132dd565b611cf982600a60008673ffffffffffffffffffffffffffffffffffffffff1673ffffffffffffffffffffffffffffffffffffffff16815260200190815260200160002061280c90919063ffffffff16565b905092915050565b600073ffffffffffffffffffffffffffffffffffffffff168473ffffffffffffffffffffffffffffffffffffffff1603611d735760006040517fe602df05000000000000000000000000000000000000000000000000000000008152600401611d6a91906136eb565b60405180910390fd5b600073ffffffffffffffffffffffffffffffffffffffff168373ffffffffffffffffffffffffffffffffffffffff1603611de55760006040517f94280d62000000000000000000000000000000000000000000000000000000008152600401611ddc91906136eb565b60405180910390fd5b81600160008673ffffffffffffffffffffffffffffffffffffffff1673ffffffffffffffffffffffffffffffffffffffff16815260200190815260200160002060008573ffffffffffffffffffffffffffffffffffffffff1673ffffffffffffffffffffffffffffffffffffffff168152602001908152602001600020819055508015611ed2578273ffffffffffffffffffffffffffffffffffffffff168473ffffffffffffffffffffffffffffffffffffffff167f8c5be1e5ebec7d5bd14f71427d1e84f3dd0314c0f7b2291e5b200ac8c7c3b92584604051611ec99190613525565b60405180910390a35b50505050565b611ee38383836128e1565b505050565b60007f8b73c3c69bb8fe3d512ecc4cf759cc79239f7b179b0ffacaa9a75d522b39400f7f00000000000000000000000000000000000000000000000000000000000000007f00000000000000000000000000000000000000000000000000000000000000004630604051602001611f63959493929190613faa565b60405160208183030381529060405280519060200120905090565b6000808203611f905760009050612072565b60006001611f9d84612992565b901c6001901b90506001818481611fb757611fb6613c51565b5b048201901c90506001818481611fd057611fcf613c51565b5b048201901c90506001818481611fe957611fe8613c51565b5b048201901c9050600181848161200257612001613c51565b5b048201901c9050600181848161201b5761201a613c51565b5b048201901c9050600181848161203457612033613c51565b5b048201901c9050600181848161204d5761204c613c51565b5b048201901c905061206e8182858161206857612067613c51565b5b04612a73565b9150505b919050565b60008260005281602060002001905092915050565b60005b818310156120fa5760006120a38484612a8c565b90508465ffffffffffff166120b88783612077565b60000160009054906101000a900465ffffffffffff1665ffffffffffff1611156120e4578092506120f4565b6001816120f19190613f4d565b93505b5061208f565b819050949350505050565b61210d610ba9565b612143576040517f8dfc202b00000000000000000000000000000000000000000000000000000000815260040160405180910390fd5b565b600061215082610bd2565b9050919050565b8173ffffffffffffffffffffffffffffffffffffffff168373ffffffffffffffffffffffffffffffffffffffff16141580156121935750600081115b156123cb57600073ffffffffffffffffffffffffffffffffffffffff168373ffffffffffffffffffffffffffffffffffffffff16146122b157600080612222600a60008773ffffffffffffffffffffffffffffffffffffffff1673ffffffffffffffffffffffffffffffffffffffff16815260200190815260200160002061126161221d86612ab2565b612b20565b79ffffffffffffffffffffffffffffffffffffffffffffffffffff16915079ffffffffffffffffffffffffffffffffffffffffffffffffffff1691508473ffffffffffffffffffffffffffffffffffffffff167fdec2bacdd2f05b59de34da9b523dff8be42e5e38e818c82fdb0bae774387a72483836040516122a6929190613ffd565b60405180910390a250505b600073ffffffffffffffffffffffffffffffffffffffff168273ffffffffffffffffffffffffffffffffffffffff16146123ca5760008061233b600a60008673ffffffffffffffffffffffffffffffffffffffff1673ffffffffffffffffffffffffffffffffffffffff16815260200190815260200160002061124b61233686612ab2565b612b20565b79ffffffffffffffffffffffffffffffffffffffffffffffffffff16915079ffffffffffffffffffffffffffffffffffffffffffffffffffff1691508373ffffffffffffffffffffffffffffffffffffffff167fdec2bacdd2f05b59de34da9b523dff8be42e5e38e818c82fdb0bae774387a72483836040516123bf929190613ffd565b60405180910390a250505b5b505050565b600081600001805490509050919050565b600063ffffffff8016821115612431576020826040517f6dfcc650000000000000000000000000000000000000000000000000000000008152600401612428929190614061565b60405180910390fd5b819050919050565b6000600860008373ffffffffffffffffffffffffffffffffffffffff1673ffffffffffffffffffffffffffffffffffffffff168152602001908152602001600020549050919050565b61248a610ba9565b156124c1576040517fd93c066500000000000000000000000000000000000000000000000000000000815260040160405180910390fd5b565b606060ff60001b83146124e0576124d983612b60565b905061256d565b8180546124ec90613baf565b80601f016020809104026020016040519081016040528092919081815260200182805461251890613baf565b80156125655780601f1061253a57610100808354040283529160200191612565565b820191906000526020600020905b81548152906001019060200180831161254857829003601f168201915b505050505090505b92915050565b60006040517f190100000000000000000000000000000000000000000000000000000000000081528360028201528260228201526042812091505092915050565b60008060007f7fffffffffffffffffffffffffffffff5d576e7357a4501ddfe92f46681b20a08460001c11156125f457600060038592509250925061269e565b600060018888888860405160008152602001604052604051612619949392919061408a565b6020604051602081039080840390855afa15801561263b573d6000803e3d6000fd5b505050602060405103519050600073ffffffffffffffffffffffffffffffffffffffff168173ffffffffffffffffffffffffffffffffffffffff160361268f57600060016000801b9350935093505061269e565b8060008060001b935093509350505b9450945094915050565b600060038111156126bc576126bb6140cf565b5b8260038111156126cf576126ce6140cf565b5b031561280857600160038111156126e9576126e86140cf565b5b8260038111156126fc576126fb6140cf565b5b03612733576040517ff645eedf00000000000000000000000000000000000000000000000000000000815260040160405180910390fd5b60026003811115612747576127466140cf565b5b82600381111561275a576127596140cf565b5b0361279f578060001c6040517ffce698f70000000000000000000000000000000000000000000000000000000081526004016127969190613525565b60405180910390fd5b6003808111156127b2576127b16140cf565b5b8260038111156127c5576127c46140cf565b5b0361280757806040517fd78bce0c0000000000000000000000000000000000000000000000000000000081526004016127fe9190613667565b60405180910390fd5b5b5050565b6128146132dd565b826000018263ffffffff16815481106128305761282f6140fe565b5b906000526020600020016040518060400160405290816000820160009054906101000a900465ffffffffffff1665ffffffffffff1665ffffffffffff1681526020016000820160069054906101000a900479ffffffffffffffffffffffffffffffffffffffffffffffffffff1679ffffffffffffffffffffffffffffffffffffffffffffffffffff1679ffffffffffffffffffffffffffffffffffffffffffffffffffff1681525050905092915050565b6128ec838383612bd4565b600073ffffffffffffffffffffffffffffffffffffffff168373ffffffffffffffffffffffffffffffffffffffff160361298257600061292a6107d3565b90506000612936612bec565b90508082111561297f5781816040517f1cb15d26000000000000000000000000000000000000000000000000000000008152600401612976929190613ffd565b60405180910390fd5b50505b61298d838383612c10565b505050565b600080600090506000608084901c11156129b457608083901c92506080810190505b6000604084901c11156129cf57604083901c92506040810190505b6000602084901c11156129ea57602083901c92506020810190505b6000601084901c1115612a0557601083901c92506010810190505b6000600884901c1115612a2057600883901c92506008810190505b6000600484901c1115612a3b57600483901c92506004810190505b6000600284901c1115612a5657600283901c92506002810190505b6000600184901c1115612a6a576001810190505b80915050919050565b6000818310612a825781612a84565b825b905092915050565b60006002828418612a9d9190613c80565b828416612aaa9190613f4d565b905092915050565b600079ffffffffffffffffffffffffffffffffffffffffffffffffffff8016821115612b185760d0826040517f6dfcc650000000000000000000000000000000000000000000000000000000008152600401612b0f929190614168565b60405180910390fd5b819050919050565b600080612b54612b2e610de1565b612b44612b3a88611b3f565b868863ffffffff16565b87612cca9092919063ffffffff16565b91509150935093915050565b60606000612b6d83612ce7565b90506000602067ffffffffffffffff811115612b8c57612b8b613cda565b5b6040519080825280601f01601f191660200182016040528015612bbe5781602001600182028036833780820191505090505b5090508181528360208201528092505050919050565b612bdc612482565b612be7838383612d37565b505050565b600079ffffffffffffffffffffffffffffffffffffffffffffffffffff8016905090565b600073ffffffffffffffffffffffffffffffffffffffff168373ffffffffffffffffffffffffffffffffffffffff1603612c5d57612c5a600b61124b612c5584612ab2565b612b20565b50505b600073ffffffffffffffffffffffffffffffffffffffff168273ffffffffffffffffffffffffffffffffffffffff1603612caa57612ca7600b611261612ca284612ab2565b612b20565b50505b612cc5612cb684610b26565b612cbf84610b26565b83612157565b505050565b600080612cdb856000018585612f5c565b91509150935093915050565b60008060ff8360001c169050601f811115612d2e576040517fb3512b0c00000000000000000000000000000000000000000000000000000000815260040160405180910390fd5b80915050919050565b600073ffffffffffffffffffffffffffffffffffffffff168373ffffffffffffffffffffffffffffffffffffffff1603612d89578060026000828254612d7d9190613f4d565b92505081905550612e5c565b60008060008573ffffffffffffffffffffffffffffffffffffffff1673ffffffffffffffffffffffffffffffffffffffff16815260200190815260200160002054905081811015612e15578381836040517fe450d38c000000000000000000000000000000000000000000000000000000008152600401612e0c93929190613e74565b60405180910390fd5b8181036000808673ffffffffffffffffffffffffffffffffffffffff1673ffffffffffffffffffffffffffffffffffffffff16815260200190815260200160002081905550505b600073ffffffffffffffffffffffffffffffffffffffff168273ffffffffffffffffffffffffffffffffffffffff1603612ea55780600260008282540392505081905550612ef2565b806000808473ffffffffffffffffffffffffffffffffffffffff1673ffffffffffffffffffffffffffffffffffffffff168152602001908152602001600020600082825401925050819055505b8173ffffffffffffffffffffffffffffffffffffffff168373ffffffffffffffffffffffffffffffffffffffff167fddf252ad1be2c89b69c2b068fc378daa952ba7f163c4a11628f55a4df523b3ef83604051612f4f9190613525565b60405180910390a3505050565b60008060008580549050905060008111156131ed576000612f8987600184612f849190613f19565b612077565b6040518060400160405290816000820160009054906101000a900465ffffffffffff1665ffffffffffff1665ffffffffffff1681526020016000820160069054906101000a900479ffffffffffffffffffffffffffffffffffffffffffffffffffff1679ffffffffffffffffffffffffffffffffffffffffffffffffffff1679ffffffffffffffffffffffffffffffffffffffffffffffffffff168152505090508565ffffffffffff16816000015165ffffffffffff161115613078576040517f2520601d00000000000000000000000000000000000000000000000000000000815260040160405180910390fd5b8565ffffffffffff16816000015165ffffffffffff16036130fc57846130aa886001856130a59190613f19565b612077565b60000160066101000a81548179ffffffffffffffffffffffffffffffffffffffffffffffffffff021916908379ffffffffffffffffffffffffffffffffffffffffffffffffffff1602179055506131dc565b8660405180604001604052808865ffffffffffff1681526020018779ffffffffffffffffffffffffffffffffffffffffffffffffffff168152509080600181540180825580915050600190039060005260206000200160009091909190915060008201518160000160006101000a81548165ffffffffffff021916908365ffffffffffff16021790555060208201518160000160066101000a81548179ffffffffffffffffffffffffffffffffffffffffffffffffffff021916908379ffffffffffffffffffffffffffffffffffffffffffffffffffff16021790555050505b8060200151859350935050506132d5565b8560405180604001604052808765ffffffffffff1681526020018679ffffffffffffffffffffffffffffffffffffffffffffffffffff168152509080600181540180825580915050600190039060005260206000200160009091909190915060008201518160000160006101000a81548165ffffffffffff021916908365ffffffffffff16021790555060208201518160000160066101000a81548179ffffffffffffffffffffffffffffffffffffffffffffffffffff021916908379ffffffffffffffffffffffffffffffffffffffffffffffffffff160217905550505060008492509250505b935093915050565b6040518060400160405280600065ffffffffffff168152602001600079ffffffffffffffffffffffffffffffffffffffffffffffffffff1681525090565b600081519050919050565b600082825260208201905092915050565b60005b8381101561335557808201518184015260208101905061333a565b60008484015250505050565b6000601f19601f8301169050919050565b600061337d8261331b565b6133878185613326565b9350613397818560208601613337565b6133a081613361565b840191505092915050565b600060208201905081810360008301526133c58184613372565b905092915050565b600080fd5b600073ffffffffffffffffffffffffffffffffffffffff82169050919050565b60006133fd826133d2565b9050919050565b61340d816133f2565b811461341857600080fd5b50565b60008135905061342a81613404565b92915050565b6000819050919050565b61344381613430565b811461344e57600080fd5b50565b6000813590506134608161343a565b92915050565b6000806040838503121561347d5761347c6133cd565b5b600061348b8582860161341b565b925050602061349c85828601613451565b9150509250929050565b60008115159050919050565b6134bb816134a6565b82525050565b60006020820190506134d660008301846134b2565b92915050565b600063ffffffff82169050919050565b6134f5816134dc565b82525050565b600060208201905061351060008301846134ec565b92915050565b61351f81613430565b82525050565b600060208201905061353a6000830184613516565b92915050565b60006bffffffffffffffffffffffff82169050919050565b61356181613540565b811461356c57600080fd5b50565b60008135905061357e81613558565b92915050565b6000806040838503121561359b5761359a6133cd565b5b60006135a98582860161341b565b92505060206135ba8582860161356f565b9150509250929050565b6000806000606084860312156135dd576135dc6133cd565b5b60006135eb8682870161341b565b93505060206135fc8682870161341b565b925050604061360d86828701613451565b9150509250925092565b600060ff82169050919050565b61362d81613617565b82525050565b60006020820190506136486000830184613624565b92915050565b6000819050919050565b6136618161364e565b82525050565b600060208201905061367c6000830184613658565b92915050565b600060208284031215613698576136976133cd565b5b60006136a684828501613451565b91505092915050565b6000602082840312156136c5576136c46133cd565b5b60006136d38482850161341b565b91505092915050565b6136e5816133f2565b82525050565b600060208201905061370060008301846136dc565b92915050565b60007fff0000000000000000000000000000000000000000000000000000000000000082169050919050565b61373b81613706565b82525050565b600081519050919050565b600082825260208201905092915050565b6000819050602082019050919050565b61377681613430565b82525050565b6000613788838361376d565b60208301905092915050565b6000602082019050919050565b60006137ac82613741565b6137b6818561374c565b93506137c18361375d565b8060005b838110156137f25781516137d9888261377c565b97506137e483613794565b9250506001810190506137c5565b5085935050505092915050565b600060e082019050613814600083018a613732565b81810360208301526138268189613372565b9050818103604083015261383a8188613372565b90506138496060830187613516565b61385660808301866136dc565b61386360a0830185613658565b81810360c083015261387581846137a1565b905098975050505050505050565b600065ffffffffffff82169050919050565b61389e81613883565b82525050565b60006020820190506138b96000830184613895565b92915050565b6138c881613617565b81146138d357600080fd5b50565b6000813590506138e5816138bf565b92915050565b6138f48161364e565b81146138ff57600080fd5b50565b600081359050613911816138eb565b92915050565b60008060008060008060c08789031215613934576139336133cd565b5b600061394289828a0161341b565b965050602061395389828a01613451565b955050604061396489828a01613451565b945050606061397589828a016138d6565b935050608061398689828a01613902565b92505060a061399789828a01613902565b9150509295509295509295565b600080600080600080600060e0888a0312156139c3576139c26133cd565b5b60006139d18a828b0161341b565b97505060206139e28a828b0161341b565b96505060406139f38a828b01613451565b9550506060613a048a828b01613451565b9450506080613a158a828b016138d6565b93505060a0613a268a828b01613902565b92505060c0613a378a828b01613902565b91505092959891949750929550565b60008060408385031215613a5d57613a5c6133cd565b5b6000613a6b8582860161341b565b9250506020613a7c8582860161341b565b9150509250929050565b613a8f816134dc565b8114613a9a57600080fd5b50565b600081359050613aac81613a86565b92915050565b60008060408385031215613ac957613ac86133cd565b5b6000613ad78582860161341b565b9250506020613ae885828601613a9d565b9150509250929050565b613afb81613883565b82525050565b600079ffffffffffffffffffffffffffffffffffffffffffffffffffff82169050919050565b613b3081613b01565b82525050565b604082016000820151613b4c6000850182613af2565b506020820151613b5f6020850182613b27565b50505050565b6000604082019050613b7a6000830184613b36565b92915050565b7f4e487b7100000000000000000000000000000000000000000000000000000000600052602260045260246000fd5b60006002820490506001821680613bc757607f821691505b602082108103613bda57613bd9613b80565b5b50919050565b7f4e487b7100000000000000000000000000000000000000000000000000000000600052601160045260246000fd5b6000613c1a82613430565b9150613c2583613430565b9250828202613c3381613430565b91508282048414831517613c4a57613c49613be0565b5b5092915050565b7f4e487b7100000000000000000000000000000000000000000000000000000000600052601260045260246000fd5b6000613c8b82613430565b9150613c9683613430565b925082613ca657613ca5613c51565b5b828204905092915050565b6000604082019050613cc66000830185613516565b613cd36020830184613895565b9392505050565b7f4e487b7100000000000000000000000000000000000000000000000000000000600052604160045260246000fd5b6000608082019050613d1e6000830187613658565b613d2b60208301866136dc565b613d386040830185613516565b613d456060830184613516565b95945050505050565b600060c082019050613d636000830189613658565b613d7060208301886136dc565b613d7d60408301876136dc565b613d8a6060830186613516565b613d976080830185613516565b613da460a0830184613516565b979650505050505050565b6000604082019050613dc460008301856136dc565b613dd160208301846136dc565b9392505050565b6000613de382613b01565b9150613dee83613b01565b9250828201905079ffffffffffffffffffffffffffffffffffffffffffffffffffff811115613e2057613e1f613be0565b5b92915050565b6000613e3182613b01565b9150613e3c83613b01565b9250828203905079ffffffffffffffffffffffffffffffffffffffffffffffffffff811115613e6e57613e6d613be0565b5b92915050565b6000606082019050613e8960008301866136dc565b613e966020830185613516565b613ea36040830184613516565b949350505050565b6000819050919050565b6000819050919050565b6000613eda613ed5613ed084613eab565b613eb5565b613617565b9050919050565b613eea81613ebf565b82525050565b6000604082019050613f056000830185613ee1565b613f126020830184613516565b9392505050565b6000613f2482613430565b9150613f2f83613430565b9250828203905081811115613f4757613f46613be0565b5b92915050565b6000613f5882613430565b9150613f6383613430565b9250828201905080821115613f7b57613f7a613be0565b5b92915050565b6000604082019050613f9660008301856136dc565b613fa36020830184613516565b9392505050565b600060a082019050613fbf6000830188613658565b613fcc6020830187613658565b613fd96040830186613658565b613fe66060830185613516565b613ff360808301846136dc565b9695505050505050565b60006040820190506140126000830185613516565b61401f6020830184613516565b9392505050565b6000819050919050565b600061404b61404661404184614026565b613eb5565b613617565b9050919050565b61405b81614030565b82525050565b60006040820190506140766000830185614052565b6140836020830184613516565b9392505050565b600060808201905061409f6000830187613658565b6140ac6020830186613624565b6140b96040830185613658565b6140c66060830184613658565b95945050505050565b7f4e487b7100000000000000000000000000000000000000000000000000000000600052602160045260246000fd5b7f4e487b7100000000000000000000000000000000000000000000000000000000600052603260045260246000fd5b6000819050919050565b600061415261414d6141488461412d565b613eb5565b613617565b9050919050565b61416281614137565b82525050565b600060408201905061417d6000830185614159565b61418a6020830184613516565b939250505056fea2646970667358221220b3f142fb7fcc7a742071a466a8ca05ffa07ba4f0ab60f9eaf8a6630d25cbb74e64736f6c63430008180033",
  "linkReferences": {},
  "deployedLinkReferences": {}
}